:020000040800F2
:10000000C007002089010008B50300086703000845
:10001000B103000843020008E70D000800000000DB
:100020000000000000000000000000006105000862
:100030004702000800000000290400084D060008DF
:10004000A3010008A3010008A3010008A301000800
:10005000A3010008A3010008A3010008A3010008F0
:10006000A3010008A3010008A3010008A3010008E0
:10007000A3010008A3010008A3010008A3010008D0
:10008000A3010008A3010008A3010008A3010008C0
:10009000A3010008A3010008A3010008A3010008B0
:1000A000A3010008A3010008A3010008A3010008A0
:1000B000A3010008A301000800000000A30100083C
:1000C000A30100080000000000000000A3010008D8
:1000D00000000000A3010008890B000800000000D8
:1000E000A3010008A3010008A301000800F002F822
:1000F00000F03AF80AA090E8000C82448344AAF188
:100100000107DA4501D100F02FF8AFF2090EBAE885
:100110000F0013F0010F18BFFB1A43F0010318473B
:10012000C4110000E4110000103A24BF78C878C15F
:10013000FAD8520724BF30C830C144BF04680C60ED
:10014000704700000023002400250026103A28BF35
:1001500078C1FBD8520728BF30C148BF0B60704739
:100160001FB51FBD10B510BD00F031F81146FFF7E7
:10017000F7FF00F0C9FE00F04FF803B4FFF7F2FFFD
:1001800003BC00F057F800000948804709480047C1
:10019000FEE7FEE7FEE7FEE7FEE7FEE7FEE7FEE737
:1001A000FEE7FEE704480549054A064B7047000094
:1001B00051060008ED000008C0010020C007002023
:1001C000C0030020C0030020704770477047754689
:1001D00000F02CF8AE4605006946534620F00700B3
:1001E000854618B020B5FFF7DDFFBDE820404FF091
:1001F00000064FF000074FF000084FF0000B21F011
:100200000701AC46ACE8C009ACE8C009ACE8C009DD
:10021000ACE8C0098D46704710B50446AFF30080C6
:100220002046BDE81040FFF7A8BF00000048704717
:100230006001002001491820ABBEFEE72600020045
:10024000704700BFFEE770472DE9F04102460025E8
:100250000026002000230024002791F803C00CF0A2
:100260000F0591F803C00CF0100CBCF1000F03D087
:1002700091F802C04CEA050591F800C0BCF1000FEE
:1002800031D0146800202BE04FF0010C0CFA00F381
:10029000B1F800C00CEA03069E4220D183004FF063
:1002A0000F0C0CFA03F7BC4305FA03FC4CEA0404F8
:1002B00091F803C0BCF1280F06D14FF0010C0CFAE5
:1002C00000FCC2F814C00AE091F803C0BCF1480F6A
:1002D00005D14FF0010C0CFA00FCC2F810C0401C14
:1002E0000828D1D31460B1F800C0BCF1FF0F34DD91
:1002F000546800202EE000F1080C4FF0010808FAC5
:100300000CF3B1F800C00CEA03069E4221D1830031
:100310004FF00F0C0CFA03F7BC4305FA03FC4CEA50
:10032000040491F803C0BCF1280F05D100F1080CBA
:1003300008FA0CF8C2F8148091F803C0BCF1480F19
:1003400007D100F1080C4FF0010808FA0CF8C2F8C8
:100350001080401C0828CED35460BDE8F081416174
:1003600070470161704700BFFEE7000008B501213A
:10037000102000F07BF84FF40050ADF80000102082
:100380008DF8030003208DF8020069460448FFF74A
:100390005BFF4FF400510248FFF7E3FF08BD000088
:1003A0000010014010B500F007FF00F09DF910BDEE
:1003B00000BFFEE77047000070B5002100230F2248
:1003C000C47804B3154C246804F4E064C4F5E06414
:1003D000210AC1F10403CA40447804FA03F1847885
:1003E0001440214309010E4C0678A155047804F00D
:1003F0001F050124AC4005786D11AD0005F1E02525
:10040000C5F8004109E0047804F01F050124AC4060
:10041000044D0678761145F8264070BD0CED00E0DD
:1004200000E400E080E100E07047000029B1064AE6
:10043000D2690243044BDA6104E0034AD269824381
:10044000014BDA61704700000010024029B1064AF2
:1004500012690243044B1A6104E0034A12698243A1
:10046000014B1A61704700000010024029B1064A92
:1004700092690243044B9A6104E0034A9269824301
:10048000014B9A61704700000010024030B5002116
:100490000022002400232D4D6D6805F00C0121B1D0
:1004A000042905D0082923D105E0294D056022E063
:1004B000274D05601FE0254D6D6805F47012234D32
:1004C0006D6805F48034022505EB92421CB9214D7C
:1004D000554305600BE01D4D6D6805F400351DB1F9
:1004E0001C4D5543056002E0194D5543056002E07F
:1004F000174D056000BF00BF144D6D6805F0F00199
:100500000909154D6B5C0568DD4045600F4D6D6850
:1005100005F4E061090A104D6B5C4568DD408560BB
:100520000A4D6D6805F46051C90A0B4D6B5C456856
:10053000DD40C560054D6D6805F44041890B074DF0
:100540006B5CC568B5FBF3F5056130BD001002407A
:1005500000127A0000093D00000000201000002079
:10056000704710B500F002F810BD00000CB5002077
:10057000019000903348006840F4803031490860B1
:1005800000BF3048006800F4003000900198401C23
:100590000190009818B90198B0F5A06FF1D12948E1
:1005A000006800F4003010B10120009001E000204C
:1005B00000900098012843D12348006840F01000C3
:1005C000214908600846006820F0030008600846DA
:1005D000006840F0020008601A4840681949486005
:1005E0000846406848600846406840F480604860BB
:1005F0000846406820F47C1048600846406840F493
:10060000E81048600846006840F08070086000BF4D
:100610000C48006800F000700028F9D009484068D4
:1006200020F00300074948600846406840F0020097
:10063000486000BF0348406800F00C000828F9D16A
:100640000CBD000000100240002002407047000076
:1006500010B51348006840F00100114908600846D1
:100660004068104908400E494860084600680E4935
:1006700008400B4908600846006820F480200860A4
:100680000846406820F4FE0048604FF41F00886070
:10069000FFF767FF4FF000600449086010BD0000DD
:1006A000001002400000FFF8FFFFF6FE08ED00E03A
:1006B00021B1028842F00102028004E002884FF674
:1006C000FE731A400280704731B1B0F8442042F402
:1006D0000042A0F8442005E0B0F84420C2F30E0226
:1006E000A0F8442070470000F0B587B00121C8028F
:1006F000FFF7BCFE40F21F30ADF814000820ADF843
:1007000010000020ADF812008DF8180004A921484F
:1007100000F0A6F964276424642564266020ADF8FF
:1007200000000120ADF802000020ADF80800ADF88F
:1007300006706946174800F02FF80821154800F0A8
:1007400077F8ADF806406946124800F07BF80821BA
:10075000104800F0C9F8ADF8065069460D4800F0A1
:10076000D1F808210B4800F01DF9ADF80660694684
:10077000084800F021F90821064800F05BF9012142
:100780000448FFF795FF01210248FFF79DFF07B0DE
:10079000F0BD0000002C014070B5002400220023B1
:1007A000058C4FF6FE7635400584028C8388048BD9
:1007B0004FF68F752C40B51E2C400D882C43751EAE
:1007C0002A400D892A434D882A43144DA8420BD054
:1007D000134DA84208D0134DA84205D0124DA8428F
:1007E00002D0124DA84213D14FF6F7752A404D8919
:1007F0002A434FF6FB752A408D882A434FF6FF6542
:100800002B404FF6FF552B408D892B43CD892B4331
:1008100083800483CD888586028470BD002C0140CE
:1008200000340140004001400044014000480140C4
:100830000A460021018B4FF6F773194011430183DB
:100840007047000070B5002400220023058C4FF68D
:10085000EF7635400584028C8388048B48F6FF755B
:100860002C404FF6FF452C400D884FF6FF7606EAE8
:1008700005252C434FF6DF752A400D8906EA05153C
:100880002A434D8806EA05152A43154DA84202D091
:10089000144DA8421DD14FF67F752A404D894FF661
:1008A000FF7606EA05152A434FF6BF752A408D8864
:1008B00006EA05152A434FF6FF352B404FF2FF7528
:1008C0002B408D8906EA85052B43CD8906EA8505EF
:1008D0002B4383800483CD880587028470BD00008C
:1008E000002C0140003401400A460021018B4FF2E8
:1008F000FF7319404FF6FF7303EA02231943018384
:100900007047000070B5002400220023058C4FF6CC
:10091000FF6635400584028C8388848B4FF68F7583
:100920002C404FF6FC752C400D882C434FF6FF559C
:100930002A400D894FF6FF7606EA05252A434D88A1
:1009400006EA05252A43154DA84202D0144DA842B7
:100950001DD14FF2FF752A404D894FF6FF7606EA0A
:1009600005252A434FF6FF352A408D8806EA0525DE
:100970002A434EF6FF752B404DF6FF752B408D89AF
:1009800006EA05152B43CD8906EA05152B4383801E
:100990008483CD888587028470BD0000002C0140CF
:1009A000003401400A460021818B4FF6F77319404D
:1009B000114381837047000070B50022002300249A
:1009C000058C4EF6FF7635400584038C8488828B37
:1009D00048F6FF752A404FF6FF452A400D884FF62E
:1009E000FF7606EA05252A434DF6FF752B400D8953
:1009F00006EA05352B434D8806EA05352B430B4D9A
:100A0000A84202D00A4DA84208D14BF6FF752C40EF
:100A10008D894FF6FF7606EA85152C438480828304
:100A2000CD88A0F84050038470BD0000002C014028
:100A3000003401400A460021818B4FF2FF731940B8
:100A40004FF6FF7303EA02231943818370478186BF
:100A500070470187704781877047A0F84010704742
:100A6000002202881D4B98420ED01D4B98420BD09D
:100A7000B0F1804F08D01B4B984205D01A4B9842DA
:100A800002D01A4B984204D14FF68F731A404B880C
:100A90001A43174B984207D0164B984204D04FF692
:100AA000FF431A40CB881A4302808B8883850B88CA
:100AB00003850A4B98420BD0094B984208D00E4B45
:100AC000984205D00D4B984202D00D4B984201D16F
:100AD0000B7A03860123838270470000002C0140BB
:100AE000003401400004004000080040000C0040B9
:100AF000001000400014004000400140004401404C
:100B00000048014000B500F031FB98B300F034FB21
:100B10000346FF2B2ED100F02FFB0346F12B29D1EA
:100B200000F02AFB1449887000F026FB1249C870B7
:100B300000F022FB1049087100F01EFB0E494871BD
:100B400000F01AFB0C498871084680780B49086050
:100B50000948C0780849097900EB012000B208492A
:100B60000880054840790449897900EB012000B2EA
:100B70000449088000BD0000170000202400002068
:100B80001E0000202000002010B540F225510E4824
:100B900000F086F8B0B10C4800F020F90B490C4A7F
:100BA000127888540A480078401C094908700846A1
:100BB0000078FF2801DD0020087006480078401CFE
:100BC0000449087010BD000000440040600000208F
:100BD000140000201500002010B586B00446012145
:100BE0000420FFF743FC01214804FFF71FFC042009
:100BF000ADF8140018208DF8170005A92048FFF75C
:100C000023FB0820ADF8140004208DF8170005A977
:100C10001B48FFF719FB01214804FFF717FC0021CF
:100C20004FF40030FFF712FC01940020ADF80800EB
:100C3000ADF80A00ADF80C00ADF810000C20ADF8CE
:100C40000E0001A90F4800F05DF826208DF8000085
:100C500003208DF801008DF8020001208DF80300BB
:100C60006846FFF7A9FB012240F22551054800F034
:100C700024F80121034800F007F806B010BD000079
:100C8000000801400044004021B1828942F4005232
:100C9000828104E082894DF6FF731A408281704799
:100CA00002460020B1F5007F00D100BF13880B4041
:100CB0000BB1012000E000207047F0B5034600248E
:100CC00000260025002040F66A17B94200D100BF77
:100CD0001846C1F3421401F01F06012707FA06F572
:100CE000012C01D10C3004E0022C01D1103000E0C5
:100CF00014301AB107682F43076002E00768AF435A
:100D00000760F0BD2DE9F04786B005460E46002489
:100D1000A24600BFA1460027B08900B100BF2F4600
:100D20002C8A4CF6FF700440F08804432C82AC8976
:100D30004EF6F3100440B0883189084371890843A6
:100D40000443AC81AC8A4FF6FF400440B0890443B1
:100D5000AC8201A8FFF79AFB1F48874202D1DDF859
:100D600010A001E0DDF80CA0A88900F4004040B11B
:100D70000AEBCA0000EB0A1031684900B0FBF1F839
:100D800007E00AEBCA0000EB0A1031688900B0FBEB
:100D9000F1F86420B8FBF0F004012009642101FBA4
:100DA0001089A88900F4004040B1322000EBC9004E
:100DB000B0FBF1F000F00700044308E0322000EB44
:100DC00009106421B0FBF1F000F00F0004432C8106
:100DD00006B0BDE8F0870000003801400146888871
:100DE000C0F30800704700BFFEE7000070B504467E
:100DF0000D4644B940210B48FFF7B1FA802109485C
:100E0000FFF7AFFA09E0012C07D140210548FFF7B1
:100E1000A8FA80210348FFF7A2FAA9B20248FFF717
:100E20001AFE70BD000C0140002C014070B5044654
:100E30000D4654B94FF480710B48FFF790FA4FF408
:100E400000710948FFF78DFA09E0012C07D1210252
:100E50000548FFF786FA61020348FFF780FAA9B256
:100E60000248FFF7FAFD70BD000C0140002C014064
:100E700010B5FFF77BFAFFF795FA4FF4E130FFF773
:100E8000ABFE10BD70B504460D4654B94FF4006179
:100E90000B48FFF764FA4FF480610948FFF761FAE5
:100EA00009E0012C07D1E1020548FFF75AFAA10237
:100EB0000348FFF754FAA9B20248FFF7C8FD70BD16
:100EC000000C0140002C014070B504460D4644B9A9
:100ED00002210B48FFF743FA01210948FFF741FAC5
:100EE00009E0012C07D102210548FFF73AFA012158
:100EF0000348FFF734FAA9B20248FFF7AAFD70BD14
:100F0000000C0140002C0140FFF7B2FF4FF40050ED
:100F10008549486106E1FFF7F5FD8448B0F9000016
:100F2000834908608348B0F900008349086083481A
:100F300000687F4909684843814909687C4A12680A
:100F4000891A804A126802FB01007F4908607848CC
:100F500000687B4908607C4800685A2802DD5A20F6
:100F6000794908607848006810F15A0F03DA6FF089
:100F70005900754908606E490868002801DB014680
:100F800000E041420A2902DA00206F4908606F48F8
:100F900000686949096848436D490968664A1268EA
:100FA000891A6C4A126802FB01006B4908606248AA
:100FB000006867490860684800685A2802DD5A20BE
:100FC0006549086064480068002802DA0020624928
:100FD000086059490868002801DB014600E04142E9
:100FE0000A2902DA00205C4908605C48006820B9E0
:100FF0000020554908605849086053480068002897
:101000003DD15548006890B901205549086000213C
:10101000FFF738FF00210120FFF756FF00210120D4
:10102000FFF7E4FE00210120FFF700FF7AE04A48C5
:101030000068002876D002204949086049480068C5
:10104000454A126881180120FFF71CFF45480068D7
:10105000414A126881180120FFF736FF41480068B5
:101060003D4A126881180120FFF7C0FE3D48006824
:10107000394A126881180120FFF7D8FE52E0324841
:10108000006800284ED014203749086032480068B4
:1010900010B3032032490860324800682A4A1268B7
:1010A00081180120FFF7EEFE2E480068264A1268DC
:1010B000811A0120FFF708FF2A480068224A1268B7
:1010C00081180120FFF792FE264800681E4A126828
:1010D000811A0120FFF7AAFE1F48006810BB0420F8
:1010E0001F4908601F480068174A126881180120CC
:1010F000FFF7C8FE1B480068134A1268811A0120D6
:10110000FFF7E2FE174800680F4A126881180120B5
:10111000FFF76CFE134800680B4A1268811A012021
:10112000FFF784FEF7E60000001001401E000020DB
:101130004800002020000020500000203000002047
:101140004C00002038000020400000203400002027
:10115000540000203C000020440000202400002017
:1011600058000020280000205C0000200148007882
:10117000704700001500002000BF0C4909780029C5
:10118000FBD00B490B4A1278885C0A490978491C44
:10119000084A117011460978FF2901DD00211170FC
:1011A00002490978491E014A117070471500002054
:1011B00060000020160000200EB501210420FFF77A
:1011C00055F94FF48070ADF8080018208DF80B0029
:1011D00003208DF80A0002A94048FFF735F80121E5
:1011E0000420FFF743F94FF40070ADF80800182011
:1011F0008DF80B0003208DF80A0002A93748FFF78D
:1012000023F801210420FFF731F94FF48060ADF895
:10121000080018208DF80B0003208DF80A0002A9A1
:101220002E48FFF711F801210420FFF71FF94FF4B2
:101230000060ADF8080018208DF80B0003208DF831
:101240000A0002A92548FEF7FFFF01210820FFF749
:101250000DF94FF40060ADF8040010208DF8070080
:1012600003208DF8060001A91D48FEF7EDFF0121BE
:101270000820FFF7FBF840F2C370ADF80000102023
:101280008DF8030003208DF8020069461448FEF72C
:10129000DBFF4FF400611248FFF761F84FF4806103
:1012A0000F48FFF75CF802210D48FFF758F80121BD
:1012B0000B48FFF754F840210948FFF750F8802108
:1012C0000748FFF74CF84FF480710548FFF747F8DF
:1012D0004FF400710248FFF742F80EBD00080140CC
:1012E000000C014004130008000000206000000012
:1012F0002801000864130008600000206007000057
:10130000440100080000000001020304010203047C
:10131000060708090204060800000000000000009B
:101320000000000000000000FFFFFFFF5802000067
:101330003C00000005000000050000000200000065
:10134000020000000000000000000000000000009B
:10135000000000000000000000000000000000008D
:041360000100000088
:040000050800018965
:00000001FF
